{
  "contractName": "SchereSteinPapier",
  "abi": [
    {
      "inputs": [],
      "stateMutability": "nonpayable",
      "type": "constructor"
    },
    {
      "anonymous": false,
      "inputs": [
        {
          "indexed": false,
          "internalType": "uint256",
          "name": "Einsatz",
          "type": "uint256"
        }
      ],
      "name": "EinsatzIst",
      "type": "event"
    },
    {
      "anonymous": false,
      "inputs": [
        {
          "indexed": false,
          "internalType": "address",
          "name": "Gewinner",
          "type": "address"
        }
      ],
      "name": "GewinnerIst",
      "type": "event"
    },
    {
      "inputs": [],
      "name": "Einsatz",
      "outputs": [
        {
          "internalType": "uint256",
          "name": "",
          "type": "uint256"
        }
      ],
      "stateMutability": "view",
      "type": "function",
      "constant": true
    },
    {
      "inputs": [
        {
          "internalType": "uint256",
          "name": "",
          "type": "uint256"
        }
      ],
      "name": "Spieler",
      "outputs": [
        {
          "internalType": "address",
          "name": "",
          "type": "address"
        }
      ],
      "stateMutability": "view",
      "type": "function",
      "constant": true
    },
    {
      "inputs": [
        {
          "internalType": "uint256",
          "name": "",
          "type": "uint256"
        }
      ],
      "name": "VerschluesselterZug",
      "outputs": [
        {
          "internalType": "bytes32",
          "name": "",
          "type": "bytes32"
        }
      ],
      "stateMutability": "view",
      "type": "function",
      "constant": true
    },
    {
      "inputs": [
        {
          "internalType": "uint256",
          "name": "",
          "type": "uint256"
        }
      ],
      "name": "Zug",
      "outputs": [
        {
          "internalType": "uint256",
          "name": "",
          "type": "uint256"
        }
      ],
      "stateMutability": "view",
      "type": "function",
      "constant": true
    },
    {
      "inputs": [],
      "name": "jetzt",
      "outputs": [
        {
          "internalType": "uint256",
          "name": "",
          "type": "uint256"
        }
      ],
      "stateMutability": "view",
      "type": "function",
      "constant": true
    },
    {
      "inputs": [],
      "name": "owner",
      "outputs": [
        {
          "internalType": "address",
          "name": "",
          "type": "address"
        }
      ],
      "stateMutability": "view",
      "type": "function",
      "constant": true
    },
    {
      "inputs": [],
      "name": "start",
      "outputs": [
        {
          "internalType": "uint256",
          "name": "",
          "type": "uint256"
        }
      ],
      "stateMutability": "view",
      "type": "function",
      "constant": true
    },
    {
      "inputs": [],
      "name": "start1",
      "outputs": [
        {
          "internalType": "uint256",
          "name": "",
          "type": "uint256"
        }
      ],
      "stateMutability": "view",
      "type": "function",
      "constant": true
    },
    {
      "inputs": [],
      "name": "stop",
      "outputs": [
        {
          "internalType": "uint256",
          "name": "",
          "type": "uint256"
        }
      ],
      "stateMutability": "view",
      "type": "function",
      "constant": true
    },
    {
      "inputs": [],
      "name": "stop1",
      "outputs": [
        {
          "internalType": "uint256",
          "name": "",
          "type": "uint256"
        }
      ],
      "stateMutability": "view",
      "type": "function",
      "constant": true
    },
    {
      "inputs": [],
      "name": "spielen",
      "outputs": [],
      "stateMutability": "payable",
      "type": "function",
      "payable": true
    },
    {
      "inputs": [
        {
          "internalType": "bytes32",
          "name": "wahl",
          "type": "bytes32"
        }
      ],
      "name": "waehlen",
      "outputs": [],
      "stateMutability": "nonpayable",
      "type": "function"
    },
    {
      "inputs": [
        {
          "internalType": "uint256",
          "name": "wahl",
          "type": "uint256"
        },
        {
          "internalType": "string",
          "name": "schluessel",
          "type": "string"
        }
      ],
      "name": "wahlentschluesseln",
      "outputs": [],
      "stateMutability": "nonpayable",
      "type": "function"
    },
    {
      "inputs": [],
      "name": "erstatten",
      "outputs": [],
      "stateMutability": "nonpayable",
      "type": "function"
    },
    {
      "inputs": [],
      "name": "ETHabheben",
      "outputs": [],
      "stateMutability": "nonpayable",
      "type": "function"
    }
  ],
  "bytecode": "0x608060405268056bc75e2d63100000600c553480156200001e57600080fd5b50336000806101000a81548173ffffffffffffffffffffffffffffffffffffffff021916908373ffffffffffffffffffffffffffffffffffffffff1602179055506200006f6200007560201b60201c565b62000234565b600060016000600281106200008f576200008e620001d6565b5b0160006101000a81548173ffffffffffffffffffffffffffffffffffffffff021916908373ffffffffffffffffffffffffffffffffffffffff160217905550600060018060028110620000e757620000e6620001d6565b5b0160006101000a81548173ffffffffffffffffffffffffffffffffffffffff021916908373ffffffffffffffffffffffffffffffffffffffff1602179055506000801b6004600060028110620001425762000141620001d6565b5b01819055506000801b6004600160028110620001635762000162620001d6565b5b018190555060006006600060028110620001825762000181620001d6565b5b018190555060006006600160028110620001a157620001a0620001d6565b5b01819055506000600860006101000a81548160ff02191690836003811115620001cf57620001ce62000205565b5b0217905550565b7f4e487b7100000000000000000000000000000000000000000000000000000000600052603260045260246000fd5b7f4e487b7100000000000000000000000000000000000000000000000000000000600052602160045260246000fd5b612d3380620002446000396000f3fe6080604052600436106100e75760003560e01c8063a3ac3ff81161008a578063be9a655511610059578063be9a6555146102e3578063cf25999e1461030e578063d0d5f2f514610318578063f71aad391461032f576100e7565b8063a3ac3ff814610227578063aaf3c6aa14610250578063ac4b090e1461028d578063b23b64f8146102b8576100e7565b8063376b3ca0116100c6578063376b3ca01461016b578063394a0d22146101a857806353cc3c9a146101e55780638da5cb5b146101fc576100e7565b80621e20db146100ec57806307da68f5146101175780630e29f88514610142575b600080fd5b3480156100f857600080fd5b5061010161035a565b60405161010e919061215f565b60405180910390f35b34801561012357600080fd5b5061012c610360565b604051610139919061215f565b60405180910390f35b34801561014e57600080fd5b5061016960048036038101906101649190612300565b610366565b005b34801561017757600080fd5b50610192600480360381019061018d919061235c565b610675565b60405161019f919061215f565b60405180910390f35b3480156101b457600080fd5b506101cf60048036038101906101ca919061235c565b610690565b6040516101dc91906123a2565b60405180910390f35b3480156101f157600080fd5b506101fa6106ab565b005b34801561020857600080fd5b50610211610bf8565b60405161021e91906123fe565b60405180910390f35b34801561023357600080fd5b5061024e60048036038101906102499190612445565b610c1c565b005b34801561025c57600080fd5b506102776004803603810190610272919061235c565b610f42565b60405161028491906123fe565b60405180910390f35b34801561029957600080fd5b506102a2610f78565b6040516102af919061215f565b60405180910390f35b3480156102c457600080fd5b506102cd610f7e565b6040516102da919061215f565b60405180910390f35b3480156102ef57600080fd5b506102f8610f84565b604051610305919061215f565b60405180910390f35b610316610f8a565b005b34801561032457600080fd5b5061032d61133d565b005b34801561033b57600080fd5b506103446114aa565b604051610351919061215f565b60405180910390f35b60035481565b600a5481565b600160006002811061037b5761037a612472565b5b0160009054906101000a900473ffffffffffffffffffffffffffffffffffffffff1673ffffffffffffffffffffffffffffffffffffffff163373ffffffffffffffffffffffffffffffffffffffff1614806104365750600180600281106103e5576103e4612472565b5b0160009054906101000a900473ffffffffffffffffffffffffffffffffffffffff1673ffffffffffffffffffffffffffffffffffffffff163373ffffffffffffffffffffffffffffffffffffffff16145b610475576040517f08c379a000000000000000000000000000000000000000000000000000000000815260040161046c90612524565b60405180910390fd5b6002600381111561048957610488612544565b5b600860009054906101000a900460ff1660038111156104ab576104aa612544565b5b146104eb576040517f08c379a00000000000000000000000000000000000000000000000000000000081526004016104e2906125e5565b60405180910390fd5b600082826040516020016105009291906126a0565b604051602081830303815290604052805190602001209050600160006002811061052d5761052c612472565b5b0160009054906101000a900473ffffffffffffffffffffffffffffffffffffffff1673ffffffffffffffffffffffffffffffffffffffff163373ffffffffffffffffffffffffffffffffffffffff16036105bf57600460006002811061059657610595612472565b5b015481036105ba578260066000600281106105b4576105b3612472565b5b01819055505b6105f9565b60046001600281106105d4576105d3612472565b5b015481036105f8578260066001600281106105f2576105f1612472565b5b01819055505b5b600060066000600281106106105761060f612472565b5b01541415801561063757506000600660016002811061063257610631612472565b5b015414155b15610670576003600860006101000a81548160ff0219169083600381111561066257610661612544565b5b021790555061066f6114b0565b5b505050565b6006816002811061068557600080fd5b016000915090505481565b600481600281106106a057600080fd5b016000915090505481565b60016000600281106106c0576106bf612472565b5b0160009054906101000a900473ffffffffffffffffffffffffffffffffffffffff1673ffffffffffffffffffffffffffffffffffffffff163373ffffffffffffffffffffffffffffffffffffffff16148061077b57506001806002811061072a57610729612472565b5b0160009054906101000a900473ffffffffffffffffffffffffffffffffffffffff1673ffffffffffffffffffffffffffffffffffffffff163373ffffffffffffffffffffffffffffffffffffffff16145b6107ba576040517f08c379a00000000000000000000000000000000000000000000000000000000081526004016107b190612524565b60405180910390fd5b42600d81905550600160038111156107d5576107d4612544565b5b600860009054906101000a900460ff1660038111156107f7576107f6612544565b5b148061083657506002600381111561081257610811612544565b5b600860009054906101000a900460ff16600381111561083457610833612544565b5b145b610875576040517f08c379a000000000000000000000000000000000000000000000000000000000815260040161086c9061273a565b60405180910390fd5b600d54600a54108061088a5750600d54600c54105b6108c9576040517f08c379a00000000000000000000000000000000000000000000000000000000081526004016108c0906127cc565b60405180910390fd5b600d54600a541015610a63576000801b60046000600281106108ee576108ed612472565b5b015403610999576001806002811061090957610908612472565b5b0160009054906101000a900473ffffffffffffffffffffffffffffffffffffffff1673ffffffffffffffffffffffffffffffffffffffff166108fc65b5e620f48000600354600261095a919061281b565b6109649190612875565b9081150290604051600060405180830381858888f1935050505015801561098f573d6000803e3d6000fd5b50610998611ffa565b5b6000801b60046001600281106109b2576109b1612472565b5b015403610a5e5760016000600281106109ce576109cd612472565b5b0160009054906101000a900473ffffffffffffffffffffffffffffffffffffffff1673ffffffffffffffffffffffffffffffffffffffff166108fc65b5e620f480006003546002610a1f919061281b565b610a299190612875565b9081150290604051600060405180830381858888f19350505050158015610a54573d6000803e3d6000fd5b50610a5d611ffa565b5b610bf6565b600d54600c541015610bf55760006006600060028110610a8657610a85612472565b5b015403610b315760018060028110610aa157610aa0612472565b5b0160009054906101000a900473ffffffffffffffffffffffffffffffffffffffff1673ffffffffffffffffffffffffffffffffffffffff166108fc65b5e620f480006003546002610af2919061281b565b610afc9190612875565b9081150290604051600060405180830381858888f19350505050158015610b27573d6000803e3d6000fd5b50610b30611ffa565b5b60006006600160028110610b4857610b47612472565b5b015403610bf4576001600060028110610b6457610b63612472565b5b0160009054906101000a900473ffffffffffffffffffffffffffffffffffffffff1673ffffffffffffffffffffffffffffffffffffffff166108fc65b5e620f480006003546002610bb5919061281b565b610bbf9190612875565b9081150290604051600060405180830381858888f19350505050158015610bea573d6000803e3d6000fd5b50610bf3611ffa565b5b5b5b565b60008054906101000a900473ffffffffffffffffffffffffffffffffffffffff1681565b6001600060028110610c3157610c30612472565b5b0160009054906101000a900473ffffffffffffffffffffffffffffffffffffffff1673ffffffffffffffffffffffffffffffffffffffff163373ffffffffffffffffffffffffffffffffffffffff161480610cec575060018060028110610c9b57610c9a612472565b5b0160009054906101000a900473ffffffffffffffffffffffffffffffffffffffff1673ffffffffffffffffffffffffffffffffffffffff163373ffffffffffffffffffffffffffffffffffffffff16145b610d2b576040517f08c379a0000000000000000000000000000000000000000000000000000000008152600401610d2290612524565b60405180910390fd5b60016003811115610d3f57610d3e612544565b5b600860009054906101000a900460ff166003811115610d6157610d60612544565b5b14610da1576040517f08c379a0000000000000000000000000000000000000000000000000000000008152600401610d9890612941565b60405180910390fd5b6001600060028110610db657610db5612472565b5b0160009054906101000a900473ffffffffffffffffffffffffffffffffffffffff1673ffffffffffffffffffffffffffffffffffffffff163373ffffffffffffffffffffffffffffffffffffffff1603610e2a57806004600060028110610e2057610e1f612472565b5b0181905550610eaf565b60018060028110610e3e57610e3d612472565b5b0160009054906101000a900473ffffffffffffffffffffffffffffffffffffffff1673ffffffffffffffffffffffffffffffffffffffff163373ffffffffffffffffffffffffffffffffffffffff1603610eae57806004600160028110610ea857610ea7612472565b5b01819055505b5b6000801b6004600060028110610ec857610ec7612472565b5b015414158015610ef157506000801b6004600160028110610eec57610eeb612472565b5b015414155b15610f3f576002600860006101000a81548160ff02191690836003811115610f1c57610f1b612544565b5b021790555042600b81905550610384600b54610f389190612961565b600c819055505b50565b60018160028110610f5257600080fd5b016000915054906101000a900473ffffffffffffffffffffffffffffffffffffffff1681565b600b5481565b600c5481565b60095481565b60006003811115610f9e57610f9d612544565b5b600860009054906101000a900460ff166003811115610fc057610fbf612544565b5b14611000576040517f08c379a0000000000000000000000000000000000000000000000000000000008152600401610ff790612a03565b60405180910390fd5b66038d7ea4c680003411611049576040517f08c379a000000000000000000000000000000000000000000000000000000000815260040161104090612abb565b60405180910390fd5b600073ffffffffffffffffffffffffffffffffffffffff16600160006002811061107657611075612472565b5b0160009054906101000a900473ffffffffffffffffffffffffffffffffffffffff1673ffffffffffffffffffffffffffffffffffffffff160361114d57346003819055507f9db05bb3970a86e9cf94348c35d0f8e6bcc0c07d2e8c3861803f20f8a60cffc16003546040516110eb919061215f565b60405180910390a133600160006002811061110957611108612472565b5b0160006101000a81548173ffffffffffffffffffffffffffffffffffffffff021916908373ffffffffffffffffffffffffffffffffffffffff16021790555061133b565b600073ffffffffffffffffffffffffffffffffffffffff166001806002811061117957611178612472565b5b0160009054906101000a900473ffffffffffffffffffffffffffffffffffffffff1673ffffffffffffffffffffffffffffffffffffffff160361133a5760016000600281106111cb576111ca612472565b5b0160009054906101000a900473ffffffffffffffffffffffffffffffffffffffff1673ffffffffffffffffffffffffffffffffffffffff163373ffffffffffffffffffffffffffffffffffffffff160361125a576040517f08c379a000000000000000000000000000000000000000000000000000000000815260040161125190612b4d565b60405180910390fd5b600354341461129e576040517f08c379a000000000000000000000000000000000000000000000000000000000815260040161129590612bdf565b60405180910390fd5b33600180600281106112b3576112b2612472565b5b0160006101000a81548173ffffffffffffffffffffffffffffffffffffffff021916908373ffffffffffffffffffffffffffffffffffffffff1602179055506001600860006101000a81548160ff0219169083600381111561131857611317612544565b5b021790555042600981905550601e6009546113339190612961565b600a819055505b5b565b60008054906101000a900473ffffffffffffffffffffffffffffffffffffffff1673ffffffffffffffffffffffffffffffffffffffff163373ffffffffffffffffffffffffffffffffffffffff16146113cb576040517f08c379a00000000000000000000000000000000000000000000000000000000081526004016113c290612c71565b60405180910390fd5b600060038111156113df576113de612544565b5b600860009054906101000a900460ff16600381111561140157611400612544565b5b14611441576040517f08c379a000000000000000000000000000000000000000000000000000000000815260040161143890612cdd565b60405180910390fd5b60008054906101000a900473ffffffffffffffffffffffffffffffffffffffff1673ffffffffffffffffffffffffffffffffffffffff166108fc479081150290604051600060405180830381858888f193505050501580156114a7573d6000803e3d6000fd5b50565b600d5481565b6003808111156114c3576114c2612544565b5b600860009054906101000a900460ff1660038111156114e5576114e4612544565b5b146114ef57600080fd5b6001600660006002811061150657611505612472565b5b01540361189a576001600660016002811061152457611523612472565b5b01540361164b5760016000600281106115405761153f612472565b5b0160009054906101000a900473ffffffffffffffffffffffffffffffffffffffff1673ffffffffffffffffffffffffffffffffffffffff166108fc655af3107a400060035461158f9190612875565b9081150290604051600060405180830381858888f193505050501580156115ba573d6000803e3d6000fd5b50600180600281106115cf576115ce612472565b5b0160009054906101000a900473ffffffffffffffffffffffffffffffffffffffff1673ffffffffffffffffffffffffffffffffffffffff166108fc655af3107a400060035461161e9190612875565b9081150290604051600060405180830381858888f19350505050158015611649573d6000803e3d6000fd5b505b6002600660016002811061166257611661612472565b5b015403611771576001806002811061167d5761167c612472565b5b0160009054906101000a900473ffffffffffffffffffffffffffffffffffffffff1673ffffffffffffffffffffffffffffffffffffffff166108fc65b5e620f4800060035460026116ce919061281b565b6116d89190612875565b9081150290604051600060405180830381858888f19350505050158015611703573d6000803e3d6000fd5b507fe18095212f2536ad59bdecb643960fd95a4e36c9c2a48fd6dd9ef767d553f4d26001806002811061173957611738612472565b5b0160009054906101000a900473ffffffffffffffffffffffffffffffffffffffff1660405161176891906123fe565b60405180910390a15b6003600660016002811061178857611787612472565b5b0154036118995760016000600281106117a4576117a3612472565b5b0160009054906101000a900473ffffffffffffffffffffffffffffffffffffffff1673ffffffffffffffffffffffffffffffffffffffff166108fc65b5e620f4800060035460026117f5919061281b565b6117ff9190612875565b9081150290604051600060405180830381858888f1935050505015801561182a573d6000803e3d6000fd5b507fe18095212f2536ad59bdecb643960fd95a4e36c9c2a48fd6dd9ef767d553f4d2600160006002811061186157611860612472565b5b0160009054906101000a900473ffffffffffffffffffffffffffffffffffffffff1660405161189091906123fe565b60405180910390a15b5b600260066000600281106118b1576118b0612472565b5b015403611c4557600160066001600281106118cf576118ce612472565b5b0154036119e05760016000600281106118eb576118ea612472565b5b0160009054906101000a900473ffffffffffffffffffffffffffffffffffffffff1673ffffffffffffffffffffffffffffffffffffffff166108fc65b5e620f48000600354600261193c919061281b565b6119469190612875565b9081150290604051600060405180830381858888f19350505050158015611971573d6000803e3d6000fd5b507fe18095212f2536ad59bdecb643960fd95a4e36c9c2a48fd6dd9ef767d553f4d260016000600281106119a8576119a7612472565b5b0160009054906101000a900473ffffffffffffffffffffffffffffffffffffffff166040516119d791906123fe565b60405180910390a15b600260066001600281106119f7576119f6612472565b5b015403611b1e576001600060028110611a1357611a12612472565b5b0160009054906101000a900473ffffffffffffffffffffffffffffffffffffffff1673ffffffffffffffffffffffffffffffffffffffff166108fc655af3107a4000600354611a629190612875565b9081150290604051600060405180830381858888f19350505050158015611a8d573d6000803e3d6000fd5b5060018060028110611aa257611aa1612472565b5b0160009054906101000a900473ffffffffffffffffffffffffffffffffffffffff1673ffffffffffffffffffffffffffffffffffffffff166108fc655af3107a4000600354611af19190612875565b9081150290604051600060405180830381858888f19350505050158015611b1c573d6000803e3d6000fd5b505b60036006600160028110611b3557611b34612472565b5b015403611c445760018060028110611b5057611b4f612472565b5b0160009054906101000a900473ffffffffffffffffffffffffffffffffffffffff1673ffffffffffffffffffffffffffffffffffffffff166108fc65b5e620f480006003546002611ba1919061281b565b611bab9190612875565b9081150290604051600060405180830381858888f19350505050158015611bd6573d6000803e3d6000fd5b507fe18095212f2536ad59bdecb643960fd95a4e36c9c2a48fd6dd9ef767d553f4d260018060028110611c0c57611c0b612472565b5b0160009054906101000a900473ffffffffffffffffffffffffffffffffffffffff16604051611c3b91906123fe565b60405180910390a15b5b60036006600060028110611c5c57611c5b612472565b5b015403611ff05760016006600160028110611c7a57611c79612472565b5b015403611d895760018060028110611c9557611c94612472565b5b0160009054906101000a900473ffffffffffffffffffffffffffffffffffffffff1673ffffffffffffffffffffffffffffffffffffffff166108fc65b5e620f480006003546002611ce6919061281b565b611cf09190612875565b9081150290604051600060405180830381858888f19350505050158015611d1b573d6000803e3d6000fd5b507fe18095212f2536ad59bdecb643960fd95a4e36c9c2a48fd6dd9ef767d553f4d260018060028110611d5157611d50612472565b5b0160009054906101000a900473ffffffffffffffffffffffffffffffffffffffff16604051611d8091906123fe565b60405180910390a15b60026006600160028110611da057611d9f612472565b5b015403611eb1576001600060028110611dbc57611dbb612472565b5b0160009054906101000a900473ffffffffffffffffffffffffffffffffffffffff1673ffffffffffffffffffffffffffffffffffffffff166108fc65b5e620f480006003546002611e0d919061281b565b611e179190612875565b9081150290604051600060405180830381858888f19350505050158015611e42573d6000803e3d6000fd5b507fe18095212f2536ad59bdecb643960fd95a4e36c9c2a48fd6dd9ef767d553f4d26001600060028110611e7957611e78612472565b5b0160009054906101000a900473ffffffffffffffffffffffffffffffffffffffff16604051611ea891906123fe565b60405180910390a15b60036006600160028110611ec857611ec7612472565b5b015403611fef576001600060028110611ee457611ee3612472565b5b0160009054906101000a900473ffffffffffffffffffffffffffffffffffffffff1673ffffffffffffffffffffffffffffffffffffffff166108fc655af3107a4000600354611f339190612875565b9081150290604051600060405180830381858888f19350505050158015611f5e573d6000803e3d6000fd5b5060018060028110611f7357611f72612472565b5b0160009054906101000a900473ffffffffffffffffffffffffffffffffffffffff1673ffffffffffffffffffffffffffffffffffffffff166108fc655af3107a4000600354611fc29190612875565b9081150290604051600060405180830381858888f19350505050158015611fed573d6000803e3d6000fd5b505b5b611ff8611ffa565b565b6000600160006002811061201157612010612472565b5b0160006101000a81548173ffffffffffffffffffffffffffffffffffffffff021916908373ffffffffffffffffffffffffffffffffffffffff16021790555060006001806002811061206657612065612472565b5b0160006101000a81548173ffffffffffffffffffffffffffffffffffffffff021916908373ffffffffffffffffffffffffffffffffffffffff1602179055506000801b60046000600281106120be576120bd612472565b5b01819055506000801b60046001600281106120dc576120db612472565b5b0181905550600060066000600281106120f8576120f7612472565b5b01819055506000600660016002811061211457612113612472565b5b01819055506000600860006101000a81548160ff0219169083600381111561213f5761213e612544565b5b0217905550565b6000819050919050565b61215981612146565b82525050565b60006020820190506121746000830184612150565b92915050565b6000604051905090565b600080fd5b600080fd5b61219781612146565b81146121a257600080fd5b50565b6000813590506121b48161218e565b92915050565b600080fd5b600080fd5b6000601f19601f8301169050919050565b7f4e487b7100000000000000000000000000000000000000000000000000000000600052604160045260246000fd5b61220d826121c4565b810181811067ffffffffffffffff8211171561222c5761222b6121d5565b5b80604052505050565b600061223f61217a565b905061224b8282612204565b919050565b600067ffffffffffffffff82111561226b5761226a6121d5565b5b612274826121c4565b9050602081019050919050565b82818337600083830152505050565b60006122a361229e84612250565b612235565b9050828152602081018484840111156122bf576122be6121bf565b5b6122ca848285612281565b509392505050565b600082601f8301126122e7576122e66121ba565b5b81356122f7848260208601612290565b91505092915050565b6000806040838503121561231757612316612184565b5b6000612325858286016121a5565b925050602083013567ffffffffffffffff81111561234657612345612189565b5b612352858286016122d2565b9150509250929050565b60006020828403121561237257612371612184565b5b6000612380848285016121a5565b91505092915050565b6000819050919050565b61239c81612389565b82525050565b60006020820190506123b76000830184612393565b92915050565b600073ffffffffffffffffffffffffffffffffffffffff82169050919050565b60006123e8826123bd565b9050919050565b6123f8816123dd565b82525050565b600060208201905061241360008301846123ef565b92915050565b61242281612389565b811461242d57600080fd5b50565b60008135905061243f81612419565b92915050565b60006020828403121561245b5761245a612184565b5b600061246984828501612430565b91505092915050565b7f4e487b7100000000000000000000000000000000000000000000000000000000600052603260045260246000fd5b600082825260208201905092915050565b7f44752062697374206b65696e20537069656c65722064657220616b746965766560008201527f6e2052756e646521000000000000000000000000000000000000000000000000602082015250565b600061250e6028836124a1565b9150612519826124b2565b604082019050919050565b6000602082019050818103600083015261253d81612501565b9050919050565b7f4e487b7100000000000000000000000000000000000000000000000000000000600052602160045260246000fd5b7f446965205761686c206b616e6e206e6f6368206e69636874206175666765646560008201527f636b742077657264656e21000000000000000000000000000000000000000000602082015250565b60006125cf602b836124a1565b91506125da82612573565b604082019050919050565b600060208201905081810360008301526125fe816125c2565b9050919050565b6000819050919050565b61262061261b82612146565b612605565b82525050565b600081519050919050565b600081905092915050565b60005b8381101561265a57808201518184015260208101905061263f565b83811115612669576000848401525b50505050565b600061267a82612626565b6126848185612631565b935061269481856020860161263c565b80840191505092915050565b60006126ac828561260f565b6020820191506126bc828461266f565b91508190509392505050565b7f447520626566696e64657374206469636820696d2066616c736368656e20537060008201527f69656c2d53746174757321000000000000000000000000000000000000000000602082015250565b6000612724602b836124a1565b915061272f826126c8565b604082019050919050565b6000602082019050818103600083015261275381612717565b9050919050565b7f446965205a65697420697374206e6f6368206e6963687420616267656c61756660008201527f656e210000000000000000000000000000000000000000000000000000000000602082015250565b60006127b66023836124a1565b91506127c18261275a565b604082019050919050565b600060208201905081810360008301526127e5816127a9565b9050919050565b7f4e487b7100000000000000000000000000000000000000000000000000000000600052601160045260246000fd5b600061282682612146565b915061283183612146565b9250817fffffffffffffffffffffffffffffffffffffffffffffffffffffffffffffffff048311821515161561286a576128696127ec565b5b828202905092915050565b600061288082612146565b915061288b83612146565b92508282101561289e5761289d6127ec565b5b828203905092915050565b7f5761686c206b616e6e206e6f6368206e6963687420676574726f6666656e207760008201527f657264656e206f646572207775726465206265726569747320676574726f666660208201527f656e210000000000000000000000000000000000000000000000000000000000604082015250565b600061292b6043836124a1565b9150612936826128a9565b606082019050919050565b6000602082019050818103600083015261295a8161291e565b9050919050565b600061296c82612146565b915061297783612146565b9250827fffffffffffffffffffffffffffffffffffffffffffffffffffffffffffffffff038211156129ac576129ab6127ec565b5b828201905092915050565b7f44617320537069656c206861742062657265697473206265676f6e6e656e2100600082015250565b60006129ed601f836124a1565b91506129f8826129b7565b602082019050919050565b60006020820190508181036000830152612a1c816129e0565b9050919050565b7f4475206d757373742065696e656e2045696e7361747a20286d696e2e20302c3060008201527f30312045544829207365747a656e3b20646572206f776e65722065726861656c60208201527f7420302c30303031204554482100000000000000000000000000000000000000604082015250565b6000612aa5604d836124a1565b9150612ab082612a23565b606082019050919050565b60006020820190508181036000830152612ad481612a98565b9050919050565b7f4475206b616e6e7374206e6963687420676567656e20646963682073656c627360008201527f7420737069656c656e2100000000000000000000000000000000000000000000602082015250565b6000612b37602a836124a1565b9150612b4282612adb565b604082019050919050565b60006020820190508181036000830152612b6681612b2a565b9050919050565b7f4465696e20537069656c2d45696e7361747a206d7573732064656d20566f726760008201527f65676562656e656e20656e74737072656368656e210000000000000000000000602082015250565b6000612bc96035836124a1565b9150612bd482612b6d565b604082019050919050565b60006020820190508181036000830152612bf881612bbc565b9050919050565b7f4e75722064657220536d61727420436f6e7472616374206f776e65722f42657460008201527f7265696265722069737420626572656368746967742100000000000000000000602082015250565b6000612c5b6036836124a1565b9150612c6682612bff565b604082019050919050565b60006020820190508181036000830152612c8a81612c4e565b9050919050565b7f4573207769726420676572616465206765737069656c74210000000000000000600082015250565b6000612cc76018836124a1565b9150612cd282612c91565b602082019050919050565b60006020820190508181036000830152612cf681612cba565b905091905056fea2646970667358221220810ceb1ee84e629017df09472675561261f8a99437ebe8111c735c6b80c0f64964736f6c634300080f0033",
  "immutableReferences": {},
  "source": "// SC fr das Spiel \"Schere, Stein, Papier\" als Ethereum DApp\r\n\r\n// SPDX-License-Identifier: GPL-3.0\r\n\r\npragma solidity ^0.8.7;\r\n\r\ncontract SchereSteinPapier {\r\n    \r\n    // speichern des Smart Contract owners/Betreibers\r\n    address public owner;\r\n\r\n    // speichern der Spieler-Addressen\r\n    address [2] public Spieler;\r\n\r\n    // speichern des Spieleinsatzes\r\n    uint public Einsatz;\r\n\r\n    // speichern des verschlsselten Spiel-Zugs\r\n    bytes32[2] public VerschluesselterZug;\r\n \r\n    // speichern des entschlsselten Spiel-Zugs\r\n    // 0: initial\r\n    // 1: Schere\r\n    // 2: Stein\r\n    // 3: Papier\r\n    uint[2] public Zug;\r\n\r\n    // Spiel Status\r\n    enum Status {Beginn, Wahl, Entscheidung, Auszahlung}\r\n    Status status;\r\n\r\n    // Timer\r\n    uint public start;\r\n    uint public stop;\r\n    uint public start1;\r\n    uint public stop1 = 100000000000000000000;\r\n    uint public jetzt;\r\n\r\n    // event fr Einsatz\r\n    event EinsatzIst (uint Einsatz);\r\n\r\n    // event fr Gewinner\r\n    event GewinnerIst (address Gewinner);\r\n\r\n    // Modifier zum Prfen ob es sich um einen Spieler handelt\r\n    modifier IstSpieler() {\r\n        require (msg.sender == Spieler[0] || msg.sender == Spieler[1], \"Du bist kein Spieler der aktieven Runde!\");\r\n        _;\r\n    }\r\n\r\n    // Konstruktor legt owner fest und initialisiert Variablen\r\n    constructor() public {\r\n        owner = payable(msg.sender);\r\n        initialisieren();\r\n    }\r\n\r\n    // Funktion zum initialisieren des Spiels\r\n    function initialisieren() private {\r\n        Spieler[0] = payable(address(0));\r\n        Spieler[1] = payable(address(0));\r\n        VerschluesselterZug[0] = 0;\r\n        VerschluesselterZug[1] = 0;\r\n        Zug[0] = 0;\r\n        Zug[1] = 0;\r\n        status = Status.Beginn;\r\n    }\r\n\r\n    // Funktion zum Spiel-Beitritt\r\n    function spielen() public payable {\r\n         require (status == Status.Beginn, \"Das Spiel hat bereits begonnen!\");\r\n         require (msg.value > 1000000000000000, \"Du musst einen Einsatz (min. 0,001 ETH) setzen; der owner erhaelt 0,0001 ETH!\");\r\n         if (Spieler[0] == address(0)) {\r\n             Einsatz = msg.value;\r\n             emit EinsatzIst(Einsatz);\r\n             Spieler[0] = payable(msg.sender);\r\n         }\r\n         else if (Spieler[1] == address(0)) {\r\n             require (msg.sender != Spieler[0], \"Du kannst nicht gegen dich selbst spielen!\");\r\n             require (msg.value == Einsatz, \"Dein Spiel-Einsatz muss dem Vorgegebenen entsprechen!\");\r\n             Spieler[1] = payable(msg.sender);\r\n             status = Status.Wahl;\r\n             start = block.timestamp;\r\n             stop = start + 30;\r\n         }\r\n    }\r\n\r\n    // Funktion zum Whlen von Schere, Stein oder Papier\r\n    function waehlen(bytes32 wahl) public IstSpieler {\r\n        require (status == Status.Wahl, \"Wahl kann noch nicht getroffen werden oder wurde bereits getroffen!\");\r\n        if (msg.sender == Spieler[0]) {\r\n            VerschluesselterZug[0] = wahl;\r\n        }\r\n        else if (msg.sender == Spieler[1]) {\r\n            VerschluesselterZug[1] = wahl;\r\n        }\r\n        if (VerschluesselterZug[0] != 0 && VerschluesselterZug[1] != 0) {\r\n            status = Status.Entscheidung;\r\n            start1 = block.timestamp;\r\n            stop1 = start1 + 900;\r\n        }\r\n    }\r\n\r\n    // Funktion deckt Wahl des Spielers auf\r\n    function wahlentschluesseln(uint wahl, string memory schluessel) public IstSpieler {\r\n        require (status == Status.Entscheidung, \"Die Wahl kann noch nicht aufgedeckt werden!\");\r\n        bytes32 verschluesselt = keccak256(abi.encodePacked(wahl, schluessel)); //keccak256 takes a hex argument and not a string\r\n        if (msg.sender == Spieler[0]) {\r\n            if (verschluesselt == VerschluesselterZug[0]) {\r\n                Zug[0] = wahl;\r\n            }\r\n        }\r\n        else {\r\n            if (verschluesselt == VerschluesselterZug[1]) {\r\n                Zug[1] = wahl;\r\n            }\r\n        }\r\n        if (Zug[0] != 0 && Zug[1] != 0) {\r\n            status = Status.Auszahlung;\r\n            entscheidung();\r\n        }\r\n    }\r\n\r\n    // Funktion zur Entscheidungsfindung des Spiels\r\n    function entscheidung() private {\r\n        require (status == Status.Auszahlung);\r\n        if (Zug[0] == 1) {\r\n            if (Zug[1] == 1) {\r\n                payable(Spieler[0]).transfer(Einsatz-100000000000000);\r\n                payable(Spieler[1]).transfer(Einsatz-100000000000000);\r\n            }\r\n            if (Zug[1] == 2) {\r\n                payable(Spieler[1]).transfer(2*Einsatz-200000000000000);\r\n                emit GewinnerIst(Spieler[1]);\r\n            }\r\n            if (Zug[1] == 3) {\r\n                payable(Spieler[0]).transfer(2*Einsatz-200000000000000);\r\n                emit GewinnerIst(Spieler[0]);\r\n            }\r\n        }\r\n        if (Zug[0] == 2) {\r\n            if (Zug[1] == 1) {\r\n                payable(Spieler[0]).transfer(2*Einsatz-200000000000000);\r\n                emit GewinnerIst(Spieler[0]);\r\n            }\r\n            if (Zug[1] == 2) {\r\n                payable(Spieler[0]).transfer(Einsatz-100000000000000);\r\n                payable(Spieler[1]).transfer(Einsatz-100000000000000);\r\n            }\r\n            if (Zug[1] == 3) {\r\n                payable(Spieler[1]).transfer(2*Einsatz-200000000000000);\r\n                emit GewinnerIst(Spieler[1]);\r\n            }\r\n        }\r\n        if (Zug[0] == 3) {\r\n            if (Zug[1] == 1) {\r\n                payable(Spieler[1]).transfer(2*Einsatz-200000000000000);\r\n                emit GewinnerIst(Spieler[1]);\r\n            }\r\n            if (Zug[1] == 2) {\r\n                payable(Spieler[0]).transfer(2*Einsatz-200000000000000);\r\n                emit GewinnerIst(Spieler[0]);\r\n            }\r\n            if (Zug[1] == 3) {\r\n                payable(Spieler[0]).transfer(Einsatz-100000000000000);\r\n                payable(Spieler[1]).transfer(Einsatz-100000000000000);\r\n            }\r\n        }\r\n        initialisieren();\r\n    }\r\n\r\n    // Funktion zum Erstatten des Einsatzes\r\n    function erstatten() public IstSpieler {\r\n        jetzt = block.timestamp;\r\n        require (status == Status.Wahl || status == Status.Entscheidung, \"Du befindest dich im falschen Spiel-Status!\");\r\n        require (stop < jetzt || stop1 < jetzt, \"Die Zeit ist noch nicht abgelaufen!\");\r\n        if (stop < jetzt) {\r\n            if (VerschluesselterZug[0] == 0) {\r\n                payable(Spieler[1]).transfer(2*Einsatz-200000000000000);\r\n                initialisieren();\r\n            }\r\n            if (VerschluesselterZug[1] == 0) {\r\n                payable(Spieler[0]).transfer(2*Einsatz-200000000000000);\r\n                initialisieren();\r\n            }\r\n        }\r\n        else if (stop1 < jetzt) {\r\n            if (Zug[0] == 0) {\r\n                payable(Spieler[1]).transfer(2*Einsatz-200000000000000);\r\n                initialisieren();\r\n            }\r\n            if (Zug[1] == 0) {\r\n                payable(Spieler[0]).transfer(2*Einsatz-200000000000000);\r\n                initialisieren();\r\n            }\r\n        }\r\n    }\r\n\r\n    // Funktion um ETH-Balance abzuheben\r\n    function ETHabheben() public  {\r\n        require (msg.sender == owner, \"Nur der Smart Contract owner/Betreiber ist berechtigt!\");\r\n        require (status == Status.Beginn, \"Es wird gerade gespielt!\");\r\n        payable(owner).transfer(address(this).balance);\r\n    }\r\n}",
  "sourcePath": "C:\\Users\\pierr\\Desktop\\Blockchain\\Blockchain3\\SSP\\contracts\\SchereSteinPapier.sol",
  "compiler": {
    "name": "solc",
    "version": "0.8.15+commit.e14f2714.Emscripten.clang"
  },
  "schemaVersion": "3.4.7",
  "updatedAt": "2022-06-26T12:40:08.930Z",
  "networkType": "ethereum",
  "devdoc": {
    "kind": "dev",
    "methods": {},
    "version": 1
  },
  "userdoc": {
    "kind": "user",
    "methods": {},
    "version": 1
  }
}